:100000000C9434000C943E000C943E000C943E0082
:100010000C943E000C943E000C943E000C943E0068
:100020000C943E000C943E000C943E000C943E0058
:100030000C943E000C943E000C943E000C943E0048
:100040000C943E000C943E000C943E000C943E0038
:100050000C943E000C943E000C943E000C943E0028
:100060000C943E000C943E0011241FBECFEFD8E04C
:10007000DEBFCDBF0E9440000C947B000C940000BA
:1000800084B18FEF84B98CEF8BB980E284B918C04A
:10009000E1E050E0411101C0E0E08E2F952F86276E
:1000A00097278170442329F141E050E02427352728
:1000B000217091E0281390E09295990F907E95B968
:1000C00089B121E030E0982F947082FD02C020E0D9
:1000D00030E049B1487089B184FB662760F970E06F
:1000E0009923B1F281E090E0862797278170411132
:0A00F000DBCFAB01DBCFF894FFCFAC
:00000001FF
