:100000000C9434000C943E000C943E000C943E0082
:100010000C943E000C943E000C943E000C943E0068
:100020000C943E000C943E000C943E000C943E0058
:100030000C943E000C943E000C943E000C943E0048
:100040000C943E000C943E000C943E000C943E0038
:100050000C943E000C943E000C943E000C943E0028
:100060000C943E000C943E0011241FBECFEFD8E04C
:10007000DEBFCDBF0E9440000C9455000C940000E0
:1000800084B18FEF84B98CEF8BB980E284B989B1E8
:1000900099B182FB222720F993FB882780F98227D8
:0E00A0008295880F807E85B9F2CFF894FFCF4D
:00000001FF
